:020000040000FA
:08000000803102288731E72F4F
:100D4000FF34033451019101930192010800FE0028
:100D500012001E00FE0BA82E0034903046019600B3
:100D60003E309500403094000800EE3402340034E8
:100D70000234003401340A3400340130450190005B
:100D80008F019101F9308D008C014E010D138030DF
:100D900045018E0008007908FB007808FA00FB3650
:100DA000FA0CFB36FA0C7A084601950078080339EC
:100DB000FA000530FA35FF3E031DDA2E7A3594002D
:100DC00008004001980199019A013B309200F030EF
:100DD0009300FF309400FB307E01CE00F030C30062
:100DE0003330B800C4010430B9000430CF00BA0178
:100DF000C501D0013730BB00F030C600FF30D10054
:100E00003F30BC00F030C700FF30D200400112116B
:100E100014157E014F150330920004309100080034
:100E20008631E12687318631A22687318631BD267B
:100E300087318631AD26873140010E19202F212FB1
:100E40007C2F0030F800F9008631CB2687318230C4
:100E5000FC00DE30890B2A2FFC0B2A2F0A30F80009
:100E60000030F9008631CB2687318230FC00DE303D
:100E7000890B382FFC0B382F0030F8000130F900B7
:100E80008631CB2687318230FC00DE30890B462F3D
:100E9000FC0B462F0030F8000230F9008631CB26DB
:100EA00087318230FC00DE30890B542FFC0B542F2D
:100EB000EE30F8000230F9008631CB2687318230DF
:100EC000FC00DE30890B622FFC0B622FFF30F80034
:100ED0000330F9008631CB2687318230FC00DE30CA
:100EE000890B702FFC0B702F7C2FFF30F800033024
:100EF000F9008631CB26873140010E1D802F812FCE
:100F0000752F0E1D842F852FDF2FFF30F800033043
:100F1000F9008631CB2687318230FC00DE30890B28
:100F20008F2FFC0B8F2FEE30F8000230F900863146
:100F3000CB2687318230FC00DE30890B9D2FFC0BE5
:100F40009D2F0030F8000230F9008631CB26873122
:100F50008230FC00DE30890BAB2FFC0BAB2F003056
:100F6000F8000130F9008631CB2687318230FC0051
:100F7000DE30890BB92FFC0BB92F0A30F800003096
:100F8000F9008631CB2687318230FC00DE30890BB8
:100F9000C72FFC0BC72F0030F800F9008631CB2695
:100FA00087318230FC00DE30890BD42FFC0BD42F2C
:100FB000DF2F0030F800F9008631CB268731400161
:100FC0000E19E32FE42FD92F1C2F80310228B530C2
:100FD000840086308500703086000030870008303D
:100FE0008631A72687318631A0268731A200863137
:100FF000A1268731A300A001A10140018731102F54
:020000040001F9
:04000E00ED3FE73F9C
:04001400FF3FFF3F6C
:00000001FF
